:0400000007EF00F016
:100008005282A7ED16F00AEF1AF0DF0E0101066F13
:10001800000E076F1CEF06F0250E1E19D8B40BD082
:10002800DBC0D9FFDCC0DAFF1EC1DFFF0001DB4BFC
:10003800DC2B1CEF06F0000E0101176F000E166F87
:10004800000E0B6F000E0A6FDDC0F6FFDEC0F7FF73
:10005800F86A0800F55092EC1BF0D8A03BD0000ECF
:100068000101176F000E166F16C180F017C181F0DD
:10007800000E0001836F0A0E826F58EC1BF080C0DF
:1000880016F181C017F1D00E0001E76FFF0EE86F7F
:10009800DDC0F6FFDEC0F7FFF86A0800F550E96F2B
:1000A800EA6BE751E927E851EA23E95101011627EC
:1000B8000001EA51010117230001DD4BDE2BDDC0F1
:1000C800F6FFDEC0F7FFF86A0800F55092EC1BF067
:1000D800D8B0CAD7DDC0F6FFDEC0F7FFF86A08005F
:1000E800F5502E0AD8A439D001010B8D0001DD4B43
:1000F800DE2B000E01011D6F000E1C6F22D01CC1EB
:1001080080F01DC181F0000E0001836F0A0E826F1E
:1001180058EC1BF0DDC0F6FFDEC0F7FFF86A0800F8
:10012800F55000018027000E8123D00E80250101A3
:100138001C6FFF0E0001812101011D6F0001DD4BC5
:10014800DE2BDDC0F6FFDEC0F7FFF86A0800F550C9
:1001580092EC1BF0D8A0AFD0D2D7000E01011D6FD2
:10016800000E1C6F0B89A7D00B85C6D006C1D9FF1E
:1001780007C1DAFFDECF04F1DDCF05F1020E062755
:10018800000E072304510511D8A404D0F40E046FFF
:10019800FF0E056F000E096F000E086F03D00101F6
:1001A800084B092B085104250001E76F010109518B
:1001B80005210001E86FE7C0F6FFE8C0F7FF000E71
:1001C800F86E0F0EF76403D00800F55005D0F6CF8F
:1001D800E9FFF7CFEAFFEF500009D8A4E0D7010103
:1001E8001C511D11D8B40AD008511C5D09511D5964
:1001F800D8B004D01CC108F11DC109F11651085D21
:1002080017510959D8B005D00851165F0951175B25
:100218000ED0000E176F000E166F09D0DBC0D9FF85
:10022800DCC0DAFF200EDF6E0001DB4BDC2B0101A6
:100238001607D8A017071629F1E11729D8B41DD039
:10024800EDD704C1F6FF05C1F7FF000EF86EDBC05D
:10025800D9FFDCC0DAFF0F0EF76403D00800F550B1
:1002680005D0F6CFE9FFF7CFEAFFEF50DF6E0101C7
:10027800044B052B0001DB4BDC2B01010807D8A040
:1002880009070829DEE10929D8B41CEF06F0D9D7F7
:1002980006C1D9FF07C1DAFFDF501E6F020E06271D
:1002A800000E07231E0E046F010E056F000E096F66
:1002B800010E086F94D7DDC0F6FFDEC0F7FF00011E
:1002C800DD4BDE2BF86A0800F5CF1EF101011E5147
:1002D800000AD8B42CEF06F0630AD8B4D9D7070AB5
:1002E800D8B40AD0020AD8B43FD70F0AD8B404D079
:1002F8001A0AD8B43BD7D6D7070E0B15D8B45FD394
:100308000BA904D0000E1D6F060E1C6F06C1D9FF85
:1003180007C1DAFFDECF18F1DECF19F1DECF1AF10F
:10032800DECF1BF1040E0627000E07231BAF15D0E6
:1003380018C194F019C195F01AC196F01BC197F035
:10034800D1EC1AF094C018F195C019F196C01AF1C1
:1003580097C01BF1030E01010A13000E156F000E62
:10036800146F185119111A111B11D8B488D01A35E5
:100378001B35820F146F156BFF0E15231407D8A0B9
:10038800150714C180F015C181F0000E0001836FBC
:10039800030E826F58EC1BF080C014F181C015F178
:1003A80014C186F015C187F0000E0001896F0A0E8E
:1003B800886F55EC18F086C014F187C015F101015B
:1003C80015AF03D01407D8A015071451000833EC53
:1003D80006F0ADC00CF1AEC00DF1AFC00EF1B0C06B
:1003E8000FF10CC194F00DC195F00EC196F00FC13C
:1003F80097F018C198F019C199F01AC19AF01BC169
:100408009BF085EC08F094C00CF195C00DF196C0F6
:100418000EF197C00FF10CC1CEF00DC1CFF00EC197
:10042800D0F00FC1D1F0000E0001D26F000ED36FD3
:10043800800ED46F3F0ED56F86EC15F00001D8B052
:1004480005D001011407D8A0150719D00CC1CEF0AA
:100458000DC1CFF00EC1D0F00FC1D1F0000E0001D8
:10046800D26F000ED36F200ED46F410ED56F86EC7D
:1004780015F00001D8A003D00101144B152B010180
:100488001DBF06D01D5121E10D0E1C5DD8B01DD039
:1004980018C1BAF019C1BBF01AC1BCF01BC1BDF03C
:1004A8001C51FAEC0EF0ADC0BEF0AEC0BFF0AFC04C
:1004B800C0F0B0C0C1F02EEC0AF0BAC018F1BBC051
:1004C80019F1BCC01AF1BDC01BF1010115BF06D05E
:1004D800155124E10A0E145DD8B020D01851191115
:1004E8001A111B11D8B467D018C1D1F019C1D2F0B4
:1004F8001AC1D3F01BC1D4F021EC17F00001D1517F
:10050800D211D311D411D8A456D0010115BF53D09C
:10051800155104E1020E145DD8A04DD00CC1CEF0E7
:100528000DC1CFF00EC1D0F00FC1D1F05F0E0001A8
:10053800D26F700ED36F890ED46F400ED56F86ECD4
:1005480015F00001D8B003D00101F70E02D0010167
:10055800F80E1427FF0E1523145133EC06F0ADC026
:100568000CF1AEC00DF1AFC00EF1B0C00FF118C163
:1005780080F019C181F01AC182F01BC183F00CC14F
:1005880084F00DC185F00EC186F00FC187F0F1EC43
:1005980014F080C010F181C011F182C012F183C043
:1005A80013F1000E0101186F000E196F000E1A6F7B
:1005B800000E1B6F3CD018C1D1F019C1D2F01AC17E
:1005C800D3F01BC1D4F021EC17F0D1C010F1D2C088
:1005D80011F1D3C012F1D4C013F118C1CEF019C172
:1005E800CFF01AC1D0F01BC1D1F010C186F011C1F3
:1005F80087F012C188F013C189F0000E68EC12F080
:1006080086C0D2F087C0D3F088C0D4F089C0D5F0B6
:1006180031EC1AF0CEC018F1CFC019F1D0C01AF1E0
:10062800D1C01BF1000E0101156F000E146F010EF1
:100638001E6F0A0E1E19D8B41BD01E51040D5F0E72
:10064800F324F66EFF0EF420F76EF86A000EF82217
:100658000900F550105D0900F55011590900F550D1
:1006680012590900F5501359D8A002D01E2BE1D712
:100678001EC1E7F00001E86BE7BFE80701011C5164
:100688000001E72701011D510001E8230101145170
:100698000001E727010115510001E823E751010195
:1006A800165F0001E8510101175B1C511D11D8B4F8
:1006B80003D01607D8A01707030E0A150001E76F25
:1006C800000E01010B150001E86FE751E811D8B4DD
:1006D8000ED009D0DBC0D9FFDCC0DAFF200EDF6EF8
:1006E8000001DB4BDC2B01011607D8A0170701011D
:1006F80017BF05D01751EEE11605D8B0EBD7030E9A
:100708000A150001E76F000E01010B150001E86FE3
:10071800E751E811D8B457D0DBC0D9FFDCC0DAFF05
:100728002D0EDF6E4ED010C180F011C181F012C1C4
:1007380082F013C183F001011E51040D5F0EF324F2
:10074800F66EFF0EF420F76EF86A000EF822090024
:10075800F5CF84F00900F5CF85F00900F5CF86F0D4
:100768000A00F5CF87F098EC18F080C00CF181C032
:100778000DF182C00EF183C00FF10CC18DF00DC1D7
:100788008EF00EC18FF00FC190F00A0E0001916F2C
:10079800000E926F000E936F000E946F4AEC19F0E2
:1007A8008DC00CF18EC00DF18FC00EF190C00FF10D
:1007B80001010C51300FDBC0D9FFDCC0DAFFDF6E5E
:1007C8000001DB4BDC2B01011E071E29D8B40ED01B
:1007D800AAD7DBC0D9FFDCC0DAFF300EDF6E00011C
:1007E800DB4BDC2B01011407D8A0150715BF05D07A
:1007F8001551EFE11405D8B0ECD71DBF09D01D5134
:1008080004E1090E1C5DD8A003D0080E1E6F02D0AB
:100818001CC11EF11E511C5F000E1EBFFF0E1D5B8A
:100828001E51D8B409D0DBC0D9FFDCC0DAFF2E0EC8
:10083800DF6E0001DB4BDC2B01011E5133EC06F0AF
:10084800ADC000F1AEC001F1AFC002F1B0C003F11C
:1008580018C198F019C199F01AC19AF01BC19BF000
:1008680000C194F001C195F002C196F003C197F060
:1008780085EC08F094C0D1F095C0D2F096C0D3F0C2
:1008880097C0D4F021EC17F0D1C010F1D2C011F10B
:10089800D3C012F1D4C013F17AD010C180F011C1C5
:1008A80081F012C182F013C183F001011E51040DC1
:1008B8005F0EF324F66EFF0EF420F76EF86A000E52
:1008C800F8220900F5CF84F00900F5CF85F009007A
:1008D800F5CF86F00A00F5CF87F098EC18F080C0C5
:1008E8000CF181C00DF182C00EF183C00FF10CC173
:1008F8008DF00DC18EF00EC18FF00FC190F00A0E71
:100908000001916F000E926F000E936F000E946FAE
:100918004AEC19F08DC00CF18EC00DF18FC00EF1AC
:1009280090C00FF101010C51300FDBC0D9FFDCC0C2
:10093800DAFFDF6E0001DB4BDC2B10C18DF011C13B
:100948008EF012C18FF013C190F001011E51040DF9
:100958005F0EF324F66EFF0EF420F76EF86A000EB1
:10096800F8220900F5CF91F00900F5CF92F00900BF
:10097800F5CF93F00A00F5CF94F04AEC19F08DC04A
:1009880010F18EC011F18FC012F190C013F1010166
:100998001E071E29D8B40ED080D7DBC0D9FFDCC013
:1009A800DAFF300EDF6E0001DB4BDC2B01011C0788
:1009B800D8A01D071C511D11D8B43AD1EED706C1D5
:1009C800D9FF07C1DAFFDECF10F1DDCF11F1000E3C
:1009D80011BFFF0E126F136F020E0627000E0723BA
:1009E80013AF0AD0030E0A13131F121F111F106D25
:1009F800000E1123122313231C511D11D8A408D053
:100A08001051111112111311D8A402D01C4B1D2B17
:100A1800010E1E6F0A0E1E19D8B41BD01E51040DEC
:100A28005F0EF324F66EFF0EF420F76EF86A000EE0
:100A3800F8220900F550105D0900F5501159090018
:100A4800F55012590900F5501359D8A002D01E2BA1
:100A5800E1D7800E1EBF7F0E0001E76F01011C5118
:100A68001E5D1D51800A0001E759D8B003D01CC192
:100A78001EF115D001011D51800A0001E76F010127
:100A88001E511C5D800E1EBF7F0E0001E759D8B0B5
:100A980006D001011E511C6F1D6B1CBF1D070101F3
:100AA80016511711D8B411D0030E0A150001E76FBB
:100AB800000E01010B150001E86FE751E811D8B4E9
:100AC80004D001011607D8A0170701010BAD18D0F3
:100AD80016511C5D1D51800A0001E76F0101175175
:100AE800800A0001E759D8B006D001011C51165FF1
:100AF8001D51175B05D0000E0101176F000E166F10
:100B0800800E1EBF7F0E0001E76F010116511E5DAA
:100B18001751800A0001E759D8B008D001011E51C9
:100B2800165F000E1EBFFF0E175B05D0000E0101F9
:100B3800176F000E166F16511711D8B411D0DBC0FD
:100B4800D9FFDCC0DAFF200EDF6E0001DB4BDC2BA7
:100B580001011607D8A0170716511711D8A4EFD707
:100B6800030E0A150001E76F000E01010B150001C5
:100B7800E86FE751E811D8B452D0DBC0D9FFDCC028
:100B8800DAFF2D0EDF6E49D01CC1E7F01DC1E8F079
:100B98000001D890E737E837D890E737E8375F0E95
:100BA800E725F66EFF0EE821F76EF86A000EF822C8
:100BB8000900F5CF84F00900F5CF85F00900F5CFDD
:100BC80086F00A00F5CF87F010C180F011C181F0DE
:100BD80012C182F013C183F098EC18F080C08DF038
:100BE80081C08EF082C08FF083C090F00A0E0001A1
:100BF800916F000E926F000E936F000E946F4AEC87
:100C080019F000018D51300F01011E6FDBC0D9FFB3
:100C1800DCC0DAFF1EC1DFFF0001DB4BDC2B01016A
:100C28001C07D8A01D071C29AFE11D29D8A4ACD7E3
:100C3800DDC0F6FFDEC0F7FF0001DD4BDE2BF86AF2
:100C48000800F5CF1EF101011E51D8A410EF00F0E5
:100C5800DBC0D9FFDCC0DAFF000EDF6E1200000136
:100C6800B56F0001B5AF27D1B56DB551800A120F28
:100C7800D8A0A5D0000E896F0A0E886F000E836F6A
:100C8800640E826FB551806F816B80BF8107DAEC8B
:100C980018F080C086F081C087F055EC18F000018C
:100CA800D89086378737D89086378737240E862797
:100CB800000E87232B0E8625F66EFF0E8721F76E12
:100CC800F86A000EF8220900F5CF98F00900F5CF70
:100CD80099F00900F5CF9AF00A00F5CF9BF0000EC5
:100CE800896F640E886FB551866F876B86BF8707DB
:100CF80055EC18F00001D89086378737D89086379A
:100D08008737480E8627000E87232B0E8625F66E1A
:100D1800FF0E8721F76EF86A000EF8220900F5CF5A
:100D280094F00900F5CF95F00900F5CF96F00A0088
:100D3800F5CF97F085EC08F094C0B1F095C0B2F00B
:100D480096C0B3F097C0B4F0B1C094F0B2C095F0BB
:100D5800B3C096F0B4C097F0000E0001836F0A0E7E
:100D6800826FB551806F816B80BF8107DAEC18F014
:100D78000001D89080378137D890803781372B0E83
:100D88008025F66EFF0E8121F76EF86A000EF822B4
:100D98000900F5CF98F00900F5CF99F00900F5CFD3
:100DA8009AF00A00F5CF9BF085EC08F094C0ADF0FE
:100DB80095C0AEF096C0AFF097C0B0F01200000139
:100DC800B551800A750FD8A05DD0000E896F0A0E44
:100DD800886FB551866F876B86BF870755EC18F00B
:100DE8000001D89086378737D89086378737240E02
:100DF8008627000E87232B0E8625F66EFF0E872189
:100E0800F76EF86A000EF8220900F5CF94F0090091
:100E1800F5CF95F00900F5CF96F00A00F5CF97F0D9
:100E2800000E836F0A0E826FB551806F816B80BF91
:100E38008107DAEC18F00001D89080378137D89014
:100E4800803781372B0E8025F66EFF0E8121F76ED5
:100E5800F86A000EF8220900F5CF98F00900F5CFDE
:100E680099F00900F5CF9AF00A00F5CF9BF085ECD0
:100E780008F094C0ADF095C0AEF096C0AFF097C042
:100E8800B0F012000001B551040D2B0EF324F66EDC
:100E9800FF0EF420F76EF86A000EF8220900F5CF6D
:100EA800ADF00900F5CFAEF00900F5CFAFF00A00BC
:100EB800F5CFB0F01200B551800A120FD8A0A5D016
:100EC800000E896F0A0E886F000E836F640E826FA2
:100ED800B551806F816B80BF8107DAEC18F080C054
:100EE80086F081C087F055EC18F00001D89086375D
:100EF8008737D89086378737240E8627000E8723B2
:100F0800F70E8625F66EFE0E8721F76EF86A000E3C
:100F1800F8220900F5CF98F00900F5CF99F00900FB
:100F2800F5CF9AF00A00F5CF9BF0000E896F640E9A
:100F3800886FB551866F876B86BF870755EC18F0A9
:100F48000001D89086378737D89086378737480E7C
:100F58008627000E8723F70E8625F66EFE0E87215C
:100F6800F76EF86A000EF8220900F5CF94F0090030
:100F7800F5CF95F00900F5CF96F00A00F5CF97F078
:100F880085EC08F094C0B1F095C0B2F096C0B3F00B
:100F980097C0B4F0B1C094F0B2C095F0B3C096F069
:100FA800B4C097F0000E0001836F0A0E826FB5512E
:100FB800806F816B80BF8107DAEC18F00001D89050
:100FC80080378137D89080378137F70E8025F66EC5
:100FD800FE0E8121F76EF86A000EF8220900F5CF9F
:100FE80098F00900F5CF99F00900F5CF9AF00A00BA
:100FF800F5CF9BF085EC08F094C0ADF095C0AEF04D
:1010080096C0AFF097C0B0F012000001B551800A49
:10101800750FD8A05DD0000E896F0A0E886FB55184
:10102800866F876B86BF870755EC18F00001D8904C
:1010380086378737D89086378737240E8627000E5D
:101048008723F70E8625F66EFE0E8721F76EF86A5F
:10105800000EF8220900F5CF94F00900F5CF95F0BD
:101068000900F5CF96F00A00F5CF97F0000E836FD0
:101078000A0E826FB551806F816B80BF8107DAECF1
:1010880018F00001D89080378137D89080378137A1
:10109800F70E8025F66EFE0E8121F76EF86A000EB7
:1010A800F8220900F5CF98F00900F5CF99F009006A
:1010B800F5CF9AF00A00F5CF9BF085EC08F094C0C4
:1010C800ADF095C0AEF096C0AFF097C0B0F012008A
:1010D8000001B551040DF70EF324F66EFE0EF42050
:1010E800F76EF86A000EF8220900F5CFADF0090096
:1010F800F5CFAEF00900F5CFAFF00A00F5CFB0F0AC
:10110800120000019751800BA06F97519725A66F89
:1011180096BFA681A651D8B40DD0A629D8A408D0C8
:10112800000E946F000E956F000E966F000E976F6D
:10113800968F08D0000E946F000E956F000E966F74
:10114800000E976F9B51800BA01B9B519B25A56F91
:101158009ABFA581A551D8B40DD0A529D8A408D087
:10116800000E986F000E996F000E9A6F000E9B6F1D
:101178009A8F08D0000E986F000E996F000E9A6F24
:10118800000E9B6FA551D8B403D0A651D8A409D09E
:10119800000E946F000E956F000E966F000E976FFD
:1011A80012009A519403F3CFABF0F4CFACF0AB51EB
:1011B800A16FA26BA36BA46BAC51A76FA86BA96BB3
:1011C800AA6B99519503F3CFABF0F4CFACF0AB51C8
:1011D800A127000EA223A323A423AC51A727000E06
:1011E800A823A923AA2398519603F3CFABF0F4CFF1
:1011F800ACF0AB51A127000EA223A323A423AC512A
:10120800A727000EA823A923AA23A3C0A4F0A2C03D
:10121800A3F0A1C0A2F0A16B98519503F3CFABF056
:10122800F4CFACF0AB51A127AC51A223000EA323FD
:10123800000EA42399519403F3CFABF0F4CFACF094
:10124800AB51A127AC51A223000EA323000EA42367
:10125800A3C0A4F0A2C0A3F0A1C0A2F0A16B9851B2
:101268009403F3CFABF0F4CFACF0AB51A127AC5162
:10127800A223000EA323000EA4239A519503F3CFB3
:10128800ABF0F4CFACF0AB51A727AC51A823000EBC
:10129800A923000EAA2399519603F3CFABF0F4CFFC
:1012A800ACF0AB51A727AC51A823000EA923000E20
:1012B800AA239A519603F3CFABF0F4CFACF0AB511D
:1012C8009C6FAC519D6F9E6B9F6B9EC09FF09DC0A5
:1012D8009EF09CC09DF09C6B9C51A7279D51A82314
:1012E8009E51A9239F51AA23A1C09CF0A2C09DF0A2
:1012F800A3C09EF0A4C09FF0190E05D0D8909F33CC
:101308009E339D339C33E82EF9D79C51A7279D51D6
:10131800A8239E51A9239F51AA23A3C0A4F0A2C029
:10132800A3F0A1C0A2F0A16BA551A6C09CF09D6B33
:101338009C27000E9D23820E9C25AB6FFF0E9D21DE
:10134800AC6F0FD0D890A737A837A937AA37A4BF52
:10135800A781D890A137A237A337A437AB07D8A065
:10136800AC07A9AFEFD7000EA56FA4AF16D0FF0E3C
:10137800A1159C6FFF0EA2159D6FFF0EA3159E6F02
:101388007F0EA4159F6F9C519D119E119F11D8A48B
:1013980002D0A7A102D0010EA56FA551D8B41FD0C5
:1013A800010EA727000EA823A923AA23AAA117D0B4
:1013B800A7C09CF0A8C09DF0A9C09EF0AAC09FF04D
:1013C8009F359F339E339D339C339CC0A7F09DC0AF
:1013D800A8F09EC0A9F09FC0AAF0AB4BAC2BACBF45
:1013E8000DD0AC5103E1AB29D8A008D0000EA76FEF
:1013F800000EA86F800EA96F7F0E20D0ACBF05D05D
:10140800AC510EE1AB05D8B00BD0000EA76F000EA3
:10141800A86F000EA96F000EAA6F000EA06F0FD064
:10142800ABC0A6F0FF0EA717FF0EA8177F0EA917CF
:10143800000EAA17A6B1A98FD890A631AA6FA051FD
:10144800AA13A7C094F0A8C095F0A9C096F0AAC0A6
:1014580097F012000001BD51800BCA6FBD51BD2528
:10146800CC6FBCBFCC81CC51D8B40DD0CC29D8A47A
:1014780008D0000EBA6F000EBB6F000EBC6F000ED6
:10148800BD6FBC8F06D0000EBA6F000EBB6F000E8A
:10149800BC6F000EBD6FC151800BCB6FCA51CB1909
:1014A800D8A4CA8DC151C125CB6FC0BFCB81CB5148
:1014B800D8B40DD0CB29D8A408D0000EBE6F000E2A
:1014C800BF6F000EC06F000EC16FC08F06D0000E38
:1014D800BE6F000EBF6F000EC06F000EC16FCC5103
:1014E800CB5DD8B022D0CAAD02D0800ECA1BCCC00A
:1014F800CDF0CBC0CCF0CDC0CBF0BAC0CDF0BEC0E3
:10150800BAF0CDC0BEF0BBC0CDF0BFC0BBF0CDC0FF
:10151800BFF0BCC0CDF0C0C0BCF0CDC0C0F0BDC0F5
:10152800CDF0C1C0BDF0CDC0C1F0000ECD6FCC5123
:10153800C26FC36BC21FC31FC24BC32BCB51C46F37
:10154800C56BC251C427C351C523C5BF2CD0C551D3
:1015580004E11A0EC45DD8A026D0BA51BB11BC1143
:10156800BD11D8B402D0010E01D0000ECD6F000E0F
:10157800BA6F000EBB6F000EBC6F000EBD6FCBC004
:10158800CCF015D0CDA105D0D890CD310109CD6FC3
:1015980002D0D890CD33BAB1CD8FBD35BD33BC3371
:1015A800BB33BA33CC2BCB51CC5DD8A0EBD7CABD5B
:1015B80029D0CC51D8A409D0000EBA6F000EBB6F49
:1015C800000EBC6F000EBD6F1200BE51BA27BF518E
:1015D800BB23C051BC23C151BD23BDA183D0CDA124
:1015E80006D0D890CD33CD510109CD6F02D0D89017
:1015F800CD33BAB1CD8FBD35BD33BC33BB33BA3370
:10160800CC2B70D0BE51BA5DBF51BB59C051BC592B
:10161800BD51800AC26FC151800AC259D8B036D0B4
:10162800BAC0C2F0BBC0C3F0BCC0C4F0BDC0C5F0F6
:10163800C21FC31FC41FC51FC22B000EC323C42350
:10164800C523BE51C225C66FBF51C321C76FC05144
:10165800C421C86FC151C521C96FFF0EC625BA6F15
:10166800FF0EC721BB6FFF0EC821BC6FFF0EC9213B
:10167800BD6F800ECA1BCD6DCD51D8A40FD0010E01
:10168800BA27000EBB23BC23BD2308D0BE51BA5FC6
:10169800BF51BB5BC051BC5BC151BD5BBA51BB11F3
:1016A800BC11BD11D8A41CD0CD51D8A419D0000E9E
:1016B800BA6F000EBB6F000EBC6F000EBD6F12003C
:1016C800D890BA37BB37BC37BD37CDBFBA81CDA1AB
:1016D80002D0D88001D0D890CD37CC51D8A4CC072F
:1016E800BCAFEED7000ECB6FCDAF0AD0CDC0C2F0E5
:1016F8007F0EC217D8A402D0BAA102D0010ECB6FB8
:10170800CB51D8B420D0010EBA27000EBB23BC237E
:10171800BD23BDA118D0BAC0C2F0BBC0C3F0BCC0C5
:10172800C4F0BDC0C5F0C535C533C433C333C233F7
:10173800C2C0BAF0C3C0BBF0C4C0BCF0C5C0BDF0E5
:10174800CC29D8A4CC2BCC29D8B403D0CC51D8A43C
:101758000DD0000EBA6F000EBB6F000EBC6F000EEE
:10176800BD6FCC51D8A402D0000ECA6FCCA102D054
:10177800BC8F01D0BC9FD890CC31BD6FCABFBD8F84
:10178800BAC0BAF0BBC0BBF0BCC0BCF0BDC0BDF0B5
:1017980012001650800B236E16501624256E15BEA7
:1017A80025802550D8B40DD02528D8A408D0000EFF
:1017B800136E000E146E000E156E000E166E158E4A
:1017C80006D0000E136E000E146E000E156E000E7D
:1017D800166E1A50800B246E23502418D8A4238C1C
:1017E8001A501A24246E19BE24802450D8B40DD05F
:1017F8002428D8A408D0000E176E000E186E000E0C
:10180800196E000E1A6E198E06D0000E176E000E95
:10181800186E000E196E000E1A6E2550245CD8B092
:1018280022D023AC02D0800E231A25C026F024C073
:1018380025F026C024F013C026F017C013F026C0E8
:1018480017F014C026F018C014F026C018F015C000
:1018580026F019C015F026C019F016C026F01AC0D7
:1018680016F026C01AF0000E266E25501B6E1C6A54
:101878001B1E1C1E1B4A1C2A24501D6E1E6A1B5050
:101888001D261C501E221EBE2CD01E5004E11A0E0E
:101898001D5CD8A026D01350141015101610D8B4FB
:1018A80002D0010E01D0000E266E000E136E000E3F
:1018B800146E000E156E000E166E24C025F015D09D
:1018C80026A005D0D89026300109266E02D0D890DF
:1018D800263213B0268E16341632153214321332CD
:1018E800252A2450255CD8A0EBD723BC29D0255025
:1018F800D8A409D0000E136E000E146E000E156EDB
:10190800000E166E12001750132618501422195084
:1019180015221A50162216A083D026A006D0D890D9
:10192800263226500109266E02D0D890263213B0EE
:10193800268E16341632153214321332252A70D0F8
:101948001750135C18501458195015581650800A1F
:101958001B6E1A50800A1B58D8B036D013C01BF023
:1019680014C01CF015C01DF016C01EF01B1E1C1E56
:101978001D1E1E1E1B2A000E1C221D221E22175071
:101988001B241F6E18501C20206E19501D20216E1C
:101998001A501E20226EFF0E1F24136EFF0E2020E9
:1019A800146EFF0E2120156EFF0E2220166E800E7B
:1019B800231A266C2650D8A40FD0010E1326000E29
:1019C80014221522162208D01750135E1850145AE4
:1019D8001950155A1A50165A13501410151016107B
:1019E800D8A41CD02650D8A419D0000E136E000E0F
:1019F800146E000E156E000E166E1200D890133677
:101A080014361536163626BE138026A002D0D88086
:101A180001D0D89026362550D8A4250615AEEED785
:101A2800000E246E26AE0AD026C01BF07F0E1B16B1
:101A3800D8A402D013A002D0010E246E2450D8B42A
:101A480020D0010E1326000E14221522162216A0ED
:101A580018D013C01BF014C01CF015C01DF016C020
:101A68001EF01E341E321D321C321B321BC013F0F6
:101A78001CC014F01DC015F01EC016F02528D8A4EF
:101A8800252A2528D8B403D02550D8A40DD0000E77
:101A9800136E000E146E000E156E000E166E255095
:101AA800D8A402D0000E236E25A002D0158E01D036
:101AB800159ED8902530166E23BE168E13C013F0CF
:101AC80014C014F015C015F016C016F012002EEC54
:101AD8001BF099EC1AF013EC19F0B4EC1BF0ACEC19
:101AE8001BF0828A0C0E7EEC19F018EC1BF0948027
:101AF800BAEC1BF00400BAEC13F0000E0001816F81
:101B0800C80E806F43EC1BF0000EB8EC11F0C6C095
:101B1800FBF0C7C0FCF0C8C0FDF0C9C0FEF0020E63
:101B2800B8EC11F0C6C0F7F0C7C0F8F0C8C0F9F0BB
:101B3800C9C0FAF049504A10D8A41ED0C3EC1BF013
:101B4800A3EC1BF0000E0001EF6F000EF06F000E0B
:101B5800F16F000EF26FEFC0D1F0F0C0D2F0F1C01B
:101B6800D3F0F2C0D4F021EC17F0D1C0DBF0D2C032
:101B7800DCF0E9EC1AF035D149044A10D8A42DD08C
:101B8800C1EC1BF0C3EC1BF0010EB8EC11F0C6C0A1
:101B9800D1F0C7C0D2F0C8C0D3F0C9C0D4F021EC8E
:101BA80017F0D1C0EDF0D2C0EEF0EDC086F0EEC077
:101BB80087F00001000E87BFFF0E886F896F010E46
:101BC80068EC12F086C0DFF087C0E0F088C0E1F072
:101BD80089C0E2F0F5EC17F004D1020E49184A105A
:101BE800D8A41ED0A3EC1BF0BFEC1BF0000E000124
:101BF800EF6F000EF06F000EF16F000EF26FEFC086
:101C0800D1F0F0C0D2F0F1C0D3F0F2C0D4F021ECA2
:101C180017F0D1C0DBF0D2C0DCF0E9EC1AF0E1D06B
:101C2800030E49184A10D8A4DCD0C3EC1BF0C1EC51
:101C38001BF0FBC094F0FCC095F0FDC096F0FEC010
:101C480097F0D1EC1AF094C0BAF095C0BBF096C0EA
:101C5800BCF097C0BDF0F7C0BEF0F8C0BFF0F9C047
:101C6800C0F0FAC0C1F02EEC0AF0BAC045F1BBC012
:101C780046F1BCC047F1BDC048F1000E0001CE6F6F
:101C8800000ECF6F000ED06F000ED16F45C1D2F09D
:101C980046C1D3F047C1D4F048C1D5F086EC15F061
:101CA8000001D8B057D0000E986F000E996FC80E7B
:101CB8009A6F420E9B6F45C194F046C195F047C19B
:101CC80096F048C197F085EC08F094C0ADF095C047
:101CD800AEF096C0AFF097C0B0F0000E0001B16F43
:101CE800000EB26F200EB36F410EB46F5DEC10F0B2
:101CF800ADC0F3F0AEC0F4F0AFC0F5F0B0C0F6F090
:101D0800F3C0CEF0F4C0CFF0F5C0D0F0F6C0D1F0FB
:101D1800000E0001D26F000ED36FC80ED46F410EB3
:101D2800D56F86EC15F00001D8B008D0000EF36F1F
:101D3800000EF46FC80EF56F410EF66FC1EC1BF084
:101D4800F3C0DFF0F4C0E0F0F5C0E1F0F6C0E2F077
:101D5800F5EC17F0F7C0CEF0F8C0CFF0F9C0D0F02E
:101D6800FAC0D1F0FBC0BEF0FCC0BFF0FDC0C0F0AF
:101D7800FEC0C1F04BC086F04CC087F00001886BF4
:101D8800896B000E68EC12F086C094F087C095F05D
:101D980088C096F089C097F0D1EC1AF094C0BAF0D8
:101DA80095C0BBF096C0BCF097C0BDF02EEC0AF011
:101DB800BAC0D2F0BBC0D3F0BCC0D4F0BDC0D5F01F
:101DC80086EC15F00001D8B00CD0000EDF6F000EC5
:101DD800E06F000EE16F000EE26FF5EC17F0A3EC78
:101DE8001BF049C1EBF04AC1ECF084D60001B96F91
:101DF8006D0E0001B965BAD0000E896F0A0E886FA2
:101E0800000E836F640E826FB9C080F0816BDAECCC
:101E180018F080C086F081C087F055EC18F00001FA
:101E2800D89086378737D89086378737240E862705
:101E3800000E87232B0E8625F66EFF0E8721F76E80
:101E4800F86A000EF8220900F5CF98F00900F5CFDE
:101E580099F00900F5CF9AF00A00F5CF9BF0000E33
:101E6800896F640E886FB9C086F0876B55EC18F0DF
:101E78000001D89086378737D89086378737480E3D
:101E88008627000E87232B0E8625F66EFF0E8721E8
:101E9800F76EF86A000EF8220900F5CF94F00900F1
:101EA800F5CF95F00900F5CF96F00A00F5CF97F039
:101EB80085EC08F094C0B5F095C0B6F096C0B7F0C0
:101EC80097C0B8F0000E0001836F0A0E826FB9C088
:101ED80080F0816BDAEC18F00001D89080378137F8
:101EE800D890803781372B0E8025F66EFF0E812122
:101EF800F76EF86A000EF8220900F5CF98F009008D
:101F0800F5CF99F00900F5CF9AF00A00F5CF9BF0CC
:101F1800B5C094F0B6C095F0B7C096F0B8C097F0C9
:101F280085EC08F094C0B1F095C0B2F096C0B3F05B
:101F380097C0B4F0B1C094F0B2C095F0B3C096F0B9
:101F4800B4C097F0000E0001986F000E996F000E54
:101F58009A6F3F0E9B6F85EC08F094C0ADF095C06A
:101F6800AEF096C0AFF097C0B0F012000A0E0001B4
:101F7800B96574D0000E836F0A0E826FB9C080F005
:101F8800816BDAEC18F00001D89080378137D8904F
:101F9800803781372B0E8025F66EFF0E8121F76E74
:101FA800F86A000EF8220900F5CF98F00900F5CF7D
:101FB80099F00900F5CF9AF00A00F5CF9BF0000ED2
:101FC800896F0A0E886FB9C086F0876B55EC18F0D8
:101FD8000001D89086378737D89086378737240E00
:101FE8008627000E87232B0E8625F66EFF0E872187
:101FF800F76EF86A000EF8220900F5CF94F0090090
:10200800F5CF95F00900F5CF96F00A00F5CF97F0D7
:1020180085EC08F094C0B5F095C0B6F096C0B7F05E
:1020280097C0B8F0B5C094F0B6C095F0B7C096F0B8
:10203800B8C097F0000E0001986F000E996F000E5F
:102048009A6F3F0E9B6F85EC08F094C0ADF095C079
:10205800AEF096C0AFF097C0B0F012000001B951D1
:10206800040D2B0EF324F66EFF0EF420F76EF86ABB
:10207800000EF8220900F5CF94F00900F5CF95F08D
:102088000900F5CF96F00A00F5CF97F0000E986F8B
:10209800000E996F000E9A6F3F0E9B6F85EC08F04B
:1020A80094C0ADF095C0AEF096C0AFF097C0B0F058
:1020B80012000001B051800BB96FB051B025C46F48
:1020C800AFBFC481C451D8B40DD0C429D8A408D096
:1020D800000EAD6F000EAE6F000EAF6F000EB06F4A
:1020E800AF8F06D0000EAD6F000EAE6F000EAF6F53
:1020F800000EB06FB451800BB91BB451B425C56F35
:10210800B3BFC581C551D8B40DD0C529D8A408D04E
:10211800000EB16F000EB26F000EB36F000EB46FF9
:10212800B38F06D0000EB16F000EB26F000EB36F02
:10213800000EB46FB151B211B311B411D8A415D0B7
:10214800000EAD6F000EAE6F000EAF6F000EB06FD9
:10215800800EAF137F0EB013ADC0ADF0AEC0AEF0C1
:10216800AFC0AFF0B0C0B0F01200C451D8A411D0C5
:10217800000EAD6F000EAE6F000EAF6F000EB06FA9
:10218800ADC0ADF0AEC0AEF0AFC0AFF0B0C0B0F013
:102198001200C551B56FB66BB51FB61FB54BB62B40
:1021A800C451B76FB86BB551B727B651B8237F0E76
:1021B800B725BE6F000EB821BF6FADC0BAF0AEC074
:1021C800BBF0AFC0BCF0B0C0BDF0000EAD6F000EEC
:1021D800AE6F000EAF6F000EB06F000EC06F000E36
:1021E800C16F000EC26F000EC36F000EC56F28D0FE
:1021F800C551D8B411D0D890BA37BB37BC37BD3722
:10220800D890AD37AE37AF37B037C3BFAD81D890B0
:10221800C037C137C237C337B151BA5DB251BB59A4
:10222800B351BC59B451BD59D8A009D0C38DB151CF
:10223800BA5FB251BB5BB351BC5BB451BD5BC52B3C
:10224800190EC565D5D7BA51BB11BC11BD11D8B48B
:1022580011D0C0810FD0D890AD37AE37AF37B03777
:10226800C3BFAD81D890C037C137C237C337BE07A7
:10227800D8A0BF07AFAFEFD7000EC56FC3AF16D05A
:10228800FF0EC015B56FFF0EC115B66FFF0EC21554
:10229800B76F7F0EC315B86FB551B611B711B81126
:1022A800D8A402D0ADA102D0010EC56FC551D8B4D3
:1022B8001FD0010EAD27000EAE23AF23B023B0A16F
:1022C80017D0ADC0B5F0AEC0B6F0AFC0B7F0B0C073
:1022D800B8F0B835B833B733B633B533B5C0ADF0A9
:1022E800B6C0AEF0B7C0AFF0B8C0B0F0BE4BBF2BB1
:1022F800BFBF10D0BF5103E1BE29D8A00BD0000E3C
:10230800BF6FBE69000EAD6F000EAE6F000EAF6FEF
:10231800000EB06FBFBF05D0BF5111E1BE05D8B0E8
:102328000ED0000EBF6F000EBE6F000EAD6F000E18
:10233800AE6F000EAF6F000EB06F000EB96FBEC06B
:10234800C4F0C4A102D0AF8F01D0AF9FD890C431E0
:10235800B06FB951B013ADC0ADF0AEC0AEF0AFC004
:10236800AFF0B0C0B0F012000001CC6F020E000157
:10237800CC19D8A45ED0CC5179EC1AF080C0CAF040
:1023880081C0CBF0CAC080F0CBC081F0000E000144
:10239800836F050E826F58EC1BF0000180C086F039
:1023A80081C087F0000E87BFFF0E886F896F010E0E
:1023B80068EC12F086C0ADF087C0AEF088C0AFF010
:1023C80089C0B0F0000E0001B16FC00EB26F7F0E71
:1023D800B36F440EB46F5DEC10F0ADC0CDF0AEC07D
:1023E800CEF0AFC0CFF0B0C0D0F0CDC094F0CEC02A
:1023F80095F0CFC096F0D0C097F0000E0001986F0E
:10240800000E996FC80E9A6F420E9B6F85EC08F00C
:1024180094C0CDF095C0CEF096C0CFF097C0D0F064
:10242800CDC0C6F0CEC0C7F0CFC0C8F0D0C0C9F08C
:1024380012000001CC5179EC1AF080C0CAF081C0BA
:10244800CBF0000E0001986F000E996FC80E9A6FBE
:10245800420E9B6FCAC086F0CBC087F0000E87BFC4
:10246800FF0E886F896F010E68EC12F086C094F039
:1024780087C095F088C096F089C097F085EC08F081
:1024880094C0ADF095C0AEF096C0AFF097C0B0F074
:10249800000E0001B16FC00EB26F7F0EB36F440E15
:1024A800B46F5DEC10F0ADC0CDF0AEC0CEF0AFC0F3
:1024B800CFF0B0C0D0F0CDC0C6F0CEC0C7F0CFC00E
:1024C800C8F0D0C0C9F0120000018E6F00018E5113
:1024D800D8A489AF1AD086C08AF087C08BF088C08C
:1024E8008CF089C08DF08A1F8B1F8C1F8D1F8A2B43
:1024F800000E8B238C238D238AC090F08BC091F023
:102508008CC092F08DC093F008D086C090F087C040
:1025180091F088C092F089C093F086518711881194
:102528008911D8A409D0000E866F000E876F000E9F
:10253800886F000E896F1200960E8F6F06D08F2B52
:10254800D8909333923391339033000E90158A6F5D
:10255800000E91158B6F000E92158C6FFE0E931561
:102568008D6F8A518B118C118D11D8B40DD0E7D78E
:102578008F2B010E9027000E912392239323D8903E
:102588009333923391339033000E90158A6F000E77
:1025980091158B6F000E92158C6FFF0E93158D6F32
:1025A8008A518B118C118D11D8B407D0E1D78F07C0
:1025B800D890903791379237933792BF03D0020E55
:1025C8008F61F5D78FB108D0FF0E9017FF0E9117C6
:1025D8007F0E9217FF0E9317D8908F338FC08AF013
:1025E8008B6B8C6B8D6B8AC08DF08C6B8B6B8A6B55
:1025F8008A5190138B5191138C5192138D519313CF
:102608008E51D8A489AF01D0938F90C086F091C025
:1026180087F092C088F093C089F01200096E0950C3
:10262800D8A404AE1AD001C005F002C006F003C059
:1026380007F004C008F0051E061E071E081E052A1E
:10264800000E06220722082205C00BF006C00CF077
:1026580007C00DF008C00EF008D001C00BF002C092
:102668000CF003C00DF004C00EF00150021003106E
:102678000410D8A409D0000E016E000E026E000EE0
:10268800036E000E046E1200960E0A6E06D00A2A19
:10269800D8900E320D320C320B32000E0B14056E30
:1026A800000E0C14066E000E0D14076EFE0E0E14AE
:1026B800086E0550061007100810D8B40DD0E7D7DB
:1026C8000A2A010E0B26000E0C220D220E22D8908B
:1026D8000E320D320C320B32000E0B14056E000E4A
:1026E8000C14066E000E0D14076EFF0E0E14086E05
:1026F8000550061007100810D8B407D0E1D70A060D
:10270800D8900B360C360D360E360DBE03D0020EA1
:102718000A60F5D70AB008D0FF0E0B16FF0E0C168C
:102728007F0E0D16FF0E0E16D8900A320AC005F05D
:10273800066A076A086A05C008F0076A066A056A31
:1027480005500B1206500C1207500D1208500E12AD
:102758000950D8A404AE01D00E8E0BC001F00CC0F5
:1027680002F00DC003F00EC004F01200010E0001CB
:102778008A6F010E55EC1AF01F0E0001DB6F010E77
:10278800DC6F9B0EDD6FFF0EDE6FF7C0DFF0F8C069
:10279800E0F0F9C0E1F0FAC0E2F009EC00F01F0E39
:1027A80000018E6F010E8F6F6CEC1BF0020E0001A2
:1027B8008A6F010E55EC1AF082A405D0000E0101B3
:1027C800426F590E04D0000E0101426F4E0E416F48
:1027D80082AA04D0000E446F590E03D0000E446F35
:1027E8004E0E436F1F0E0001DB6F010EDC6F870E6C
:1027F800DD6FFF0EDE6FFBC0DFF0FCC0E0F0FDC058
:10280800E1F0FEC0E2F043C1E3F044C1E4F041C1AD
:10281800E5F042C1E6F009EC00F01F0E00018E6FF2
:10282800010E8F6F6CEC1BF0030E00018A6F010E16
:1028380055EC1AF01F0E0001DB6F010EDC6FE30E82
:10284800DD6FFF0EDE6F4BC0DFF04CC0E0F009EC2F
:1028580000F01F0E00018E6F010E8F6F6CEC1BF0E5
:10286800040E00018A6F010E55EC1AF0AFEC19F056
:1028780080C03FF181C040F11F0E0001DB6F010EE7
:10288800DC6FEC0EDD6FFF0EDE6F3FC1DFF040C185
:10289800E0F009EC00F01F0E00018E6F010E8F6F43
:1028A8006CEC1BF0120082C088F00001896B8A6B07
:1028B8008135883701E389818851906F9051D8A478
:1028C80009D0000E806F000E816F000E826F000E1F
:1028D800836F120086C088F0896B8A6B85358837CC
:1028E80001E3898188518F6F8F51D8A409D0000ED8
:1028F800806F000E816F000E826F000E836F1200D2
:10290800818FFF0E8017FF0E8117000E8217858FAB
:10291800FF0E8417FF0E8517000E8617000E8B6FAB
:10292800000E8C6F000E8D6F000E8E6F7F0E905F05
:102938008F51980F905F180E8F6FD8908B378C3708
:102948008D378E378451805D8551815986518259E2
:10295800D8A007D08451805F8551815B8651825B06
:102968008B81D8908037813782378F2FE6D790AF09
:1029780016D09051800A970FD8B009D0000E806FFA
:10298800000E816F000E826F000E836F1200D890C8
:102998008E338D338C338B33903FF9D715D0170E88
:1029A80090650FD0000E806F000E816F000E826F51
:1029B800000E836F1200D8908B378C378D378E3787
:1029C80090079051D8A4F7D78BC080F08CC081F0C5
:1029D8008DC082F08EC083F01200000182358335ED
:1029E8008D6F8D51D8A409D0000E806F000E816FB5
:1029F800000E826F000E836F1200863587358C6F4C
:102A08008C51D8A409D0000E806F000E816F000E83
:102A1800826F000E836F1200828FFF0E8017FF0EE9
:102A28008117FF0E8217000E8317868FFF0E8417FB
:102A3800FF0E8517FF0E8617000E8717000E886F8A
:102A4800000E896F000E8A6F000E8B6F7F0E8D5FF0
:102A58008C51A00F8D5F200E8C6FD89088378937E6
:102A68008A378B378451805D8551815986518259C7
:102A780087518359D8A009D08451805F8551815BE3
:102A88008651825B8751835B8881D89080378137F4
:102A9800823783378C2FE1D78DAF16D08D51800ABE
:102AA8009F0FD8B009D0000E806F000E816F000E06
:102AB800826F000E836F1200D8908B338A3389336C
:102AC80088338D3FF9D715D01F0E8D650FD0000EB6
:102AD800806F000E816F000E826F000E836F1200F0
:102AE800D890883789378A378B378D078D51D8A486
:102AF800F7D788C080F089C081F08AC082F08BC087
:102B080083F01200000E0001CE15D66F000ECF150F
:102B1800D76F800ED015D86F7F0ED115D96FD651CB
:102B2800D711D811D911D8A408D0000ECE6F000E35
:102B3800CF6F000ED06F000ED16F000ED215D66F7A
:102B4800000ED315D76F800ED415D86F7F0ED5150C
:102B5800D96FD651D711D811D911D8A408D0000EE1
:102B6800D26F000ED36F000ED46F000ED56FD1AFA9
:102B78001DD0CEC0D6F0CFC0D7F0D0C0D8F0D1C0CD
:102B8800D9F0D61FD71FD81FD91FD62B000ED72391
:102B9800D823D923000ED625CE6F000ED721CF6FAC
:102BA800000ED821D06F800ED921D16FD5AF1DD09E
:102BB800D2C0D6F0D3C0D7F0D4C0D8F0D5C0D9F0A1
:102BC800D61FD71FD81FD91FD62B000ED723D8231F
:102BD800D923000ED625D26F000ED721D36F000E51
:102BE800D821D46F800ED921D56F000ECE1B000ED0
:102BF800CF1B000ED01B800ED11B000ED21B000E67
:102C0800D31B000ED41B800ED51BD251CE5DD351E1
:102C1800CF59D451D059D551D159D8B002D0D89024
:102C28001200D8801200000E27142F6E000E2814F0
:102C3800306E800E2914316E7F0E2A14326E2F509A
:102C4800301031103210D8A408D0000E276E000EB4
:102C5800286E000E296E000E2A6E000E2B142F6EA1
:102C6800000E2C14306E800E2D14316E7F0E2E1433
:102C7800326E2F50301031103210D8A408D0000E08
:102C88002B6E000E2C6E000E2D6E000E2E6E2AAED0
:102C98001DD027C02FF028C030F029C031F02AC03D
:102CA80032F02F1E301E311E321E2F2A000E302207
:102CB80031223222000E2F24276E000E3020286E7B
:102CC800000E3120296E800E32202A6E2EAE1DD0C5
:102CD8002BC02FF02CC030F02DC031F02EC032F0B8
:102CE8002F1E301E311E321E2F2A000E3022312296
:102CF8003222000E2F242B6E000E30202C6E000E78
:102D080031202D6E800E32202E6E000E271A000EF6
:102D1800281A000E291A800E2A1A000E2B1A000EE5
:102D28002C1A000E2D1A800E2E1A2B50275C2C50B0
:102D380028582D5029582E502A58D8B002D0D8904B
:102D48001200D88012000600FACF37F0FBCF38F017
:102D5800E9CF39F0EACF3AF0E1CF3BF0E2CF3CF0EF
:102D6800D9CF3DF0DACF3EF0F3CF3FF0F4CF40F0CB
:102D7800F6CF41F0F7CF42F0F8CF43F0F5CF44F06B
:102D880052C045F053C046F054C047F055C048F013
:102D9800CF50356ECE500101496F35C04AF10B0E48
:102DA800D76EDC0ED66E000ECF6E000ECE6EF2948D
:102DB800A1B290EC17F0F0A00CD0F0904B4A4C2A3E
:102DC800040E4B184C10D8A404D0000E4C6E000E04
:102DD8004B6EF2A20CD0F292494A4A2A040E4918C4
:102DE8004A10D8A404D0000E4A6E000E496E48C09E
:102DF80055F047C054F046C053F045C052F044C0A7
:102E0800F5FF43C0F8FF42C0F7FF41C0F6FF40C0DE
:102E1800F4FF3FC0F3FF3EC0DAFF3DC0D9FF3CC01E
:102E2800E2FF3BC0E1FF3AC0EAFF39C0E9FF38C022
:102E3800FBFF37C0FAFF529211000001D335D43599
:102E4800DA6FDA51D8A409D0000ED16F000ED26F14
:102E5800000ED36F000ED46F1200D1C0D5F0D2C0CF
:102E6800D6F0D3C0D7F0D4C0D8F0200E05D0D89073
:102E7800D833D733D633D533E82EF9D7D551D96FD0
:102E8800D38FFF0ED117FF0ED217FF0ED317000EE8
:102E9800D417960EDA5FDAAF16D0DA51800A970F98
:102EA800D8B009D0000ED16F000ED26F000ED36FCC
:102EB800000ED46F1200D890D433D333D233D13329
:102EC800DA3FF9D715D01F0EDA650FD0000ED16F93
:102ED800000ED26F000ED36F000ED46F1200D89080
:102EE800D137D237D337D437DA07DA51D8A4F7D75E
:102EF800D951D8B408D0D41FD31FD21FD16D000E1A
:102F0800D223D323D423D1C0D1F0D2C0D2F0D3C09E
:102F1800D3F0D4C0D4F012004ED0829A1200828A24
:102F28001200829A82841200F7C027F0F8C028F0B5
:102F3800F9C029F0FAC02AF0FBC017F0FCC018F05D
:102F4800FDC019F0FEC01AF04BC001F04CC002F0F1
:102F5800036A046A000E12EC13F001C00FF002C0FD
:102F680010F003C011F004C012F001EC1BF00FC008
:102F780013F010C014F011C015F012C016F0CDEC0B
:102F88000BF013C02BF014C02CF015C02DF016C098
:102F98002EF017EC16F0D8B0120082BA03D0336ABC
:102FA800332A01D0336A333A334682503318DF0B61
:102FB8003318826E120049C033F04AC034F03450DE
:102FC800000AD8A412003350000AD8B4A6D7010AC0
:102FD800D8B4A7D7030AD8B4A2D7010AD8A4120034
:102FE800A3D7000E0001986FC00E996F7F0E9A6FDD
:102FF800440E9B6FDFC094F0E0C095F0E1C096F0FE
:10300800E2C097F085EC08F094C0ADF095C0AEF042
:1030180096C0AFF097C0B0F0000E0001B16F000E7F
:10302800B26FC80EB36F420EB46F5DEC10F0ADC056
:10303800E3F0AEC0E4F0AFC0E5F0B0C0E6F0000EDB
:103048000001BE6F000EBF6F000EC06F3F0EC16F54
:10305800E3C0BAF0E4C0BBF0E5C0BCF0E6C0BDF028
:103068002EEC0AF0BAC0D1F0BBC0D2F0BCC0D3F08D
:10307800BDC0D4F021EC17F0D1C0E7F0D2C0E8F021
:103088000001E8BF07D0040EE85DD8A003D0030E06
:10309800E86FE769E7C0DBF0E8C0DCF0E9EC1AF0BC
:1030A8001200000E00018B6F89AF06D0886D891F52
:1030B800D8B0892B010E8B6F87AF06D0866D871F1E
:1030C800D8B0872B010E8B1B000E8D6F000E8C6FF6
:1030D80088518911D8B41CD0010E8A6F04D0D890B9
:1030E800883789378A2B89AFFAD7D8908C378D37AC
:1030F8008851865D89518759D8A005D08851865F47
:103108008951875B8C81D890893388338A2FEDD792
:103118008B51D8B404D08C6D8D1FD8B08D2B8CC03A
:1031280086F08DC087F01200000E0001886F000E37
:10313800896F000E8A6F000E8B6F8451851186117E
:103148008711D8B42AD0010E8C6F06D0D890843756
:103158008537863787378C2B87AFF8D7D89088374D
:1031680089378A378B378451805D855181598651DB
:10317800825987518359D8A009D08451805F8551DD
:10318800815B8651825B8751835B8881D8908733C6
:103198008633853384338C2FE1D788C080F089C08B
:1031A80081F08AC082F08BC083F01200000E00010B
:1031B800856F81AF06D0806D811FD8B0812B010E3D
:1031C800856F83AF04D0826D831FD8B0832B825163
:1031D8008311D8B418D0010E846F04D0D8908237E8
:1031E8008337842B83AFFAD78251805D835181590D
:1031F800D8A004D08251805F8351815BD8908333FB
:103208008233842FF1D78551D8B404D0806D811FC3
:10321800D8B0812B80C080F081C081F012008494E6
:103228008492000E0001816F190E806F43EC1BF031
:10323800010E00018A6F030E8A6501D00DD0030EBE
:103248007FEC1BF0000E0001816F060E806F43ECCF
:103258001BF000018A2BEFD7020E7FEC1BF0000E4B
:1032680000018A6F030E8A6501D012008A51010D90
:103278004E0EF324D96E000EF420DA6EDF50886FFC
:10328800000EE0EC19F000018A2BECD700019151F7
:10329800921193119411D8B424D0010E956F06D0D1
:1032A800D8909137923793379437952B94AFF8D7B6
:1032B80091518D5D92518E5993518F5994519059D6
:1032C800D8A008D091518D5F92518E5B93518F5B3E
:1032D8009451905BD8909433933392339133952FD4
:1032E800E7D78DC08DF08EC08EF08FC08FF090C064
:1032F80090F0120000018D6F22D0010E0001886F3E
:10330800000EE0EC19F0000E0001816F020E806FD4
:1033180043EC1BF01200020E00018A6F010E55ECFF
:103328001AF01200100E0001886F000EE0EC19F080
:1033380012008DC088F0010EE0EC19F012000001B7
:103348008D51080AD8B4EED7020AD8B4E4D7060AD1
:10335800D8B4D3D7EED715D0CB0E0001806FFF0EAF
:10336800816F1200BD0E806FFF0E816F1200D80EA4
:10337800806FFF0E816F1200AD0E806FFF0E816FA0
:10338800120049C082F04AC083F000018351000A4C
:10339800D8A40DD08251000AD8B4DED7010AD8B417
:1033A800E1D7030AD8B4E3D7010AD8B4E5D7FB0EAE
:1033B800806FFF0E816F12000001896F000189B1D3
:1033C80002D0849401D08484010EB7EC1AF0010E67
:1033D800B7EC1AF08492000188390F0B7FEC1BF0D0
:1033E800000188510F0B7FEC1BF000018951D8B404
:1033F80005D0320E0400E82EFDD71200000E0001A1
:10340800816F020E806F43EC1BF012007A0EF66E8D
:10341800370EF76E000EF86E00EE4EF010EE04F068
:103428000900F5CFEEFFE550E150FAE101014A6BE2
:10343800496B486B476B466B456B00EEF7F0080E1F
:10344800EE6AE806FDE14D6A4C6A4B6A4A6A496AC7
:103458005290529200016BEF0DF0000E0001D21B4A
:10346800000ED31B000ED41B800ED51BCEC0BAF0A5
:10347800CFC0BBF0D0C0BCF0D1C0BDF0D2C0BEF050
:10348800D3C0BFF0D4C0C0F0D5C0C1F02EEC0AF054
:10349800BAC0CEF0BBC0CFF0BCC0D0F0BDC0D1F038
:1034A800120000018B6F0AD0800E000105D0C00EFB
:1034B80003D0900E01D0D00E8C6F0ED000018A512F
:1034C800010AD8B4F1D7030AD8B4F1D7010AD8B49D
:1034D800F0D7070AD8B4EFD78B058C278C51800911
:1034E800886F000EE0EC19F012000001866F86C0AC
:1034F80082F0000182478247C2508219C30B8219A9
:10350800C26EC282C2B2FED7C350C4CF82F00001DD
:10351800836B82C083F0826B8211846F8351856FC5
:1035280084C080F085C081F01200D3508F0B6009F1
:10353800D36EB192B184B180000EB36E000EB26E3C
:10354800949AF28E180EB36E690EB26EB150CF0B0C
:103558001009B16EB150CF0B1009B16E180EB36ED1
:10356800690EB26E12000001836F000E0001856FB4
:10357800000E846F04D004000001844B852B835116
:10358800806F816B8451805D8151800A826F855183
:10359800800A8259D8A01200EED7000194519511E3
:1035A80096119711D8B408D0000E941B000E951BE5
:1035B800000E961B800E971B94C094F095C095F052
:1035C80096C096F097C097F01200DBC0DDF0DCC023
:1035D800DEF00001D890DE33DD33D890DE33DD3302
:1035E800DD51BE6EDBC0DDF0030EDD17DD3BBD50E7
:1035F800DD19CF0BDD19BD6E12000F501010111020
:103608001210D8B408D0000E0F1A000E101A000EAF
:10361800111A800E121A0FC00FF010C010F011C04E
:1036280011F012C012F01200000ED56EF294D5807F
:10363800D582D5940B0ED76EDC0ED66ECD82CD9A80
:10364800CD98000ECF6E000ECE6EF28EF28ACD802F
:10365800D58E1200000EC26E0C0EC16E9368800EDD
:10366800946E9268000E956E000E966E000E4C6E6B
:10367800000E4B6E000E4A6E000E496E1200000ED0
:103688000001836F000E826F08D0C80E040004008A
:10369800E82EFCD70001824B832B8251805D835139
:1036A8008159D8A01200F1D7000180518203F3CFCD
:1036B80084F0F4CF85F080518303F350852781513E
:1036C8008203F350852784C080F085C081F0120002
:1036D8000AD08EC0D9FF8FC0DAFFDF507EEC19F018
:1036E80000018E4B8F2B8EC0D9FF8FC0DAFFDF50C1
:1036F800D8B41200EED70001876F87C086F00001AA
:10370800863B835086190F0B8619836E010EB7EC22
:103718001AF08482040000F0849212000001826F83
:10372800000E0001816F3A0E826105D02F0E82656E
:1037380002D0010E816F81C080F080311200829426
:10374800000E0001DC6F000EDB6FE9EC1AF01200CE
:10375800CB68000ECA6E0C0EBD6ECA84949412001B
:10376800000EC26EC280890EC06E1200F28EF28CFC
:103778001200280C0106828A120082841200829AA2
:0237880012002D
:10FEF600000000803F000020410000C84200007A58
:10FF06004400401C460050C347002474498096189C
:10FF16004B20BCBE4C286B6E4EF9021550EC78ADEA
:10FF260060CAF249710000803FCDCCCC3D0AD72390
:10FF36003C6F12833A17B7D138ACC52737BD378621
:10FF46003595BFD63377CC2B325F708930FFE6DB31
:10FF56002E08E53C1E6042A20D010000000A0000CA
:10FF66000064000000E803000010270000A08601DE
:10FF76000040420F008096980000E1F50500CA9AFD
:10FF86003B53503A2025332E3166432020256320EB
:10FF9600202563200052543A2025332E3166432013
:10FFA600204820204320004155544F434F4F4C20BA
:10FFB60020202020202000434F4F4C2020202020AE
:10FFC60020202020004F46462020202020202020D0
:10FFD600200048454154202020202020004853205E
:10FFE6003A20256420004D443A2025732000286ECF
:0AFFF600756C6C29004F46460000B0
:020000040020DA
:08000000FFFFFFFFFFFFFFFF00
:020000040030CA
:0E000000FF011F1FFF8385FF0FC00FE00F40A1
:00000001FF
